{
  "_format": "hh-sol-artifact-1",
  "contractName": "MyEpicNFT",
  "sourceName": "contracts/MyEpicNFT.sol",
  "abi": [
    {
      "inputs": [],
      "stateMutability": "nonpayable",
      "type": "constructor"
    },
    {
      "anonymous": false,
      "inputs": [
        {
          "indexed": true,
          "internalType": "address",
          "name": "owner",
          "type": "address"
        },
        {
          "indexed": true,
          "internalType": "address",
          "name": "approved",
          "type": "address"
        },
        {
          "indexed": true,
          "internalType": "uint256",
          "name": "tokenId",
          "type": "uint256"
        }
      ],
      "name": "Approval",
      "type": "event"
    },
    {
      "anonymous": false,
      "inputs": [
        {
          "indexed": true,
          "internalType": "address",
          "name": "owner",
          "type": "address"
        },
        {
          "indexed": true,
          "internalType": "address",
          "name": "operator",
          "type": "address"
        },
        {
          "indexed": false,
          "internalType": "bool",
          "name": "approved",
          "type": "bool"
        }
      ],
      "name": "ApprovalForAll",
      "type": "event"
    },
    {
      "anonymous": false,
      "inputs": [
        {
          "indexed": false,
          "internalType": "address",
          "name": "sender",
          "type": "address"
        },
        {
          "indexed": false,
          "internalType": "uint256",
          "name": "tokenId",
          "type": "uint256"
        }
      ],
      "name": "NewEpicNFTMinted",
      "type": "event"
    },
    {
      "anonymous": false,
      "inputs": [
        {
          "indexed": true,
          "internalType": "address",
          "name": "from",
          "type": "address"
        },
        {
          "indexed": true,
          "internalType": "address",
          "name": "to",
          "type": "address"
        },
        {
          "indexed": true,
          "internalType": "uint256",
          "name": "tokenId",
          "type": "uint256"
        }
      ],
      "name": "Transfer",
      "type": "event"
    },
    {
      "inputs": [
        {
          "internalType": "address",
          "name": "to",
          "type": "address"
        },
        {
          "internalType": "uint256",
          "name": "tokenId",
          "type": "uint256"
        }
      ],
      "name": "approve",
      "outputs": [],
      "stateMutability": "nonpayable",
      "type": "function"
    },
    {
      "inputs": [
        {
          "internalType": "address",
          "name": "owner",
          "type": "address"
        }
      ],
      "name": "balanceOf",
      "outputs": [
        {
          "internalType": "uint256",
          "name": "",
          "type": "uint256"
        }
      ],
      "stateMutability": "view",
      "type": "function"
    },
    {
      "inputs": [
        {
          "internalType": "uint256",
          "name": "tokenId",
          "type": "uint256"
        }
      ],
      "name": "getApproved",
      "outputs": [
        {
          "internalType": "address",
          "name": "",
          "type": "address"
        }
      ],
      "stateMutability": "view",
      "type": "function"
    },
    {
      "inputs": [],
      "name": "getTotalNFTsMintedSoFar",
      "outputs": [
        {
          "internalType": "uint256",
          "name": "",
          "type": "uint256"
        }
      ],
      "stateMutability": "view",
      "type": "function"
    },
    {
      "inputs": [
        {
          "internalType": "address",
          "name": "owner",
          "type": "address"
        },
        {
          "internalType": "address",
          "name": "operator",
          "type": "address"
        }
      ],
      "name": "isApprovedForAll",
      "outputs": [
        {
          "internalType": "bool",
          "name": "",
          "type": "bool"
        }
      ],
      "stateMutability": "view",
      "type": "function"
    },
    {
      "inputs": [],
      "name": "limit",
      "outputs": [
        {
          "internalType": "uint256",
          "name": "",
          "type": "uint256"
        }
      ],
      "stateMutability": "view",
      "type": "function"
    },
    {
      "inputs": [],
      "name": "makeAnEpicNFT",
      "outputs": [],
      "stateMutability": "nonpayable",
      "type": "function"
    },
    {
      "inputs": [],
      "name": "name",
      "outputs": [
        {
          "internalType": "string",
          "name": "",
          "type": "string"
        }
      ],
      "stateMutability": "view",
      "type": "function"
    },
    {
      "inputs": [
        {
          "internalType": "uint256",
          "name": "tokenId",
          "type": "uint256"
        }
      ],
      "name": "ownerOf",
      "outputs": [
        {
          "internalType": "address",
          "name": "",
          "type": "address"
        }
      ],
      "stateMutability": "view",
      "type": "function"
    },
    {
      "inputs": [
        {
          "internalType": "address",
          "name": "from",
          "type": "address"
        },
        {
          "internalType": "address",
          "name": "to",
          "type": "address"
        },
        {
          "internalType": "uint256",
          "name": "tokenId",
          "type": "uint256"
        }
      ],
      "name": "safeTransferFrom",
      "outputs": [],
      "stateMutability": "nonpayable",
      "type": "function"
    },
    {
      "inputs": [
        {
          "internalType": "address",
          "name": "from",
          "type": "address"
        },
        {
          "internalType": "address",
          "name": "to",
          "type": "address"
        },
        {
          "internalType": "uint256",
          "name": "tokenId",
          "type": "uint256"
        },
        {
          "internalType": "bytes",
          "name": "_data",
          "type": "bytes"
        }
      ],
      "name": "safeTransferFrom",
      "outputs": [],
      "stateMutability": "nonpayable",
      "type": "function"
    },
    {
      "inputs": [
        {
          "internalType": "address",
          "name": "operator",
          "type": "address"
        },
        {
          "internalType": "bool",
          "name": "approved",
          "type": "bool"
        }
      ],
      "name": "setApprovalForAll",
      "outputs": [],
      "stateMutability": "nonpayable",
      "type": "function"
    },
    {
      "inputs": [
        {
          "internalType": "bytes4",
          "name": "interfaceId",
          "type": "bytes4"
        }
      ],
      "name": "supportsInterface",
      "outputs": [
        {
          "internalType": "bool",
          "name": "",
          "type": "bool"
        }
      ],
      "stateMutability": "view",
      "type": "function"
    },
    {
      "inputs": [],
      "name": "symbol",
      "outputs": [
        {
          "internalType": "string",
          "name": "",
          "type": "string"
        }
      ],
      "stateMutability": "view",
      "type": "function"
    },
    {
      "inputs": [
        {
          "internalType": "uint256",
          "name": "tokenId",
          "type": "uint256"
        }
      ],
      "name": "tokenURI",
      "outputs": [
        {
          "internalType": "string",
          "name": "",
          "type": "string"
        }
      ],
      "stateMutability": "view",
      "type": "function"
    },
    {
      "inputs": [
        {
          "internalType": "address",
          "name": "from",
          "type": "address"
        },
        {
          "internalType": "address",
          "name": "to",
          "type": "address"
        },
        {
          "internalType": "uint256",
          "name": "tokenId",
          "type": "uint256"
        }
      ],
      "name": "transferFrom",
      "outputs": [],
      "stateMutability": "nonpayable",
      "type": "function"
    }
  ],
  "bytecode": "0x608060405260326008553480156200001657600080fd5b506040518060400160405280600981526020017f4e6f6d6164614e465400000000000000000000000000000000000000000000008152506040518060400160405280600581526020017f4e4f4d465400000000000000000000000000000000000000000000000000000081525081600090805190602001906200009b929190620001d4565b508060019080519060200190620000b4929190620001d4565b505050620001026040518060400160405280601e81526020017f54686973206973206d79204e465420636f6e74726163742e20576f61682100008152506200010860201b62000c271760201c565b620003b1565b620001a8816040516024016200011f9190620002c5565b6040516020818303038152906040527f41304fac000000000000000000000000000000000000000000000000000000007bffffffffffffffffffffffffffffffffffffffffffffffffffffffff19166020820180517bffffffffffffffffffffffffffffffffffffffffffffffffffffffff8381831617835250505050620001ab60201b60201c565b50565b60008151905060006a636f6e736f6c652e6c6f679050602083016000808483855afa5050505050565b828054620001e2906200033b565b90600052602060002090601f01602090048101928262000206576000855562000252565b82601f106200022157805160ff191683800117855562000252565b8280016001018555821562000252579182015b828111156200025157825182559160200191906001019062000234565b5b50905062000261919062000265565b5090565b5b808211156200028057600081600090555060010162000266565b5090565b60006200029182620002e9565b6200029d8185620002f4565b9350620002af81856020860162000305565b620002ba81620003a0565b840191505092915050565b60006020820190508181036000830152620002e1818462000284565b905092915050565b600081519050919050565b600082825260208201905092915050565b60005b838110156200032557808201518184015260208101905062000308565b8381111562000335576000848401525b50505050565b600060028204905060018216806200035457607f821691505b602082108114156200036b576200036a62000371565b5b50919050565b7f4e487b7100000000000000000000000000000000000000000000000000000000600052602260045260246000fd5b6000601f19601f8301169050919050565b612f9d80620003c16000396000f3fe608060405234801561001057600080fd5b50600436106101005760003560e01c806370a0823111610097578063b88d4fde11610066578063b88d4fde146102ad578063c87b56dd146102c9578063de9d132f146102f9578063e985e9c51461030357610100565b806370a082311461022557806395d89b4114610255578063a22cb46514610273578063a4d66daf1461028f57610100565b8063095ea7b3116100d3578063095ea7b3146101a157806323b872dd146101bd57806342842e0e146101d95780636352211e146101f557610100565b806301ffc9a714610105578063060475901461013557806306fdde0314610153578063081812fc14610171575b600080fd5b61011f600480360381019061011a9190611e62565b610333565b60405161012c91906122b4565b60405180910390f35b61013d610415565b60405161014a919061254f565b60405180910390f35b61015b610426565b60405161016891906122cf565b60405180910390f35b61018b60048036038101906101869190611eb4565b6104b8565b6040516101989190612224565b60405180910390f35b6101bb60048036038101906101b69190611e26565b61053d565b005b6101d760048036038101906101d29190611d20565b610655565b005b6101f360048036038101906101ee9190611d20565b6106b5565b005b61020f600480360381019061020a9190611eb4565b6106d5565b60405161021c9190612224565b60405180910390f35b61023f600480360381019061023a9190611cbb565b610787565b60405161024c919061254f565b60405180910390f35b61025d61083f565b60405161026a91906122cf565b60405180910390f35b61028d60048036038101906102889190611dea565b6108d1565b005b6102976108e7565b6040516102a4919061254f565b60405180910390f35b6102c760048036038101906102c29190611d6f565b6108ed565b005b6102e360048036038101906102de9190611eb4565b61094f565b6040516102f091906122cf565b60405180910390f35b610301610aa1565b005b61031d60048036038101906103189190611ce4565b610b93565b60405161032a91906122b4565b60405180910390f35b60007f80ac58cd000000000000000000000000000000000000000000000000000000007bffffffffffffffffffffffffffffffffffffffffffffffffffffffff1916827bffffffffffffffffffffffffffffffffffffffffffffffffffffffff191614806103fe57507f5b5e139f000000000000000000000000000000000000000000000000000000007bffffffffffffffffffffffffffffffffffffffffffffffffffffffff1916827bffffffffffffffffffffffffffffffffffffffffffffffffffffffff1916145b8061040e575061040d82610cc0565b5b9050919050565b60006104216007610d2a565b905090565b60606000805461043590612774565b80601f016020809104026020016040519081016040528092919081815260200182805461046190612774565b80156104ae5780601f10610483576101008083540402835291602001916104ae565b820191906000526020600020905b81548152906001019060200180831161049157829003601f168201915b5050505050905090565b60006104c382610d38565b610502576040517f08c379a00000000000000000000000000000000000000000000000000000000081526004016104f9906124cf565b60405180910390fd5b6004600083815260200190815260200160002060009054906101000a900473ffffffffffffffffffffffffffffffffffffffff169050919050565b6000610548826106d5565b90508073ffffffffffffffffffffffffffffffffffffffff168373ffffffffffffffffffffffffffffffffffffffff1614156105b9576040517f08c379a00000000000000000000000000000000000000000000000000000000081526004016105b09061250f565b60405180910390fd5b8073ffffffffffffffffffffffffffffffffffffffff166105d8610da4565b73ffffffffffffffffffffffffffffffffffffffff161480610607575061060681610601610da4565b610b93565b5b610646576040517f08c379a000000000000000000000000000000000000000000000000000000000815260040161063d9061240f565b60405180910390fd5b6106508383610dac565b505050565b610666610660610da4565b82610e65565b6106a5576040517f08c379a000000000000000000000000000000000000000000000000000000000815260040161069c9061252f565b60405180910390fd5b6106b0838383610f43565b505050565b6106d0838383604051806020016040528060008152506108ed565b505050565b6000806002600084815260200190815260200160002060009054906101000a900473ffffffffffffffffffffffffffffffffffffffff169050600073ffffffffffffffffffffffffffffffffffffffff168173ffffffffffffffffffffffffffffffffffffffff16141561077e576040517f08c379a00000000000000000000000000000000000000000000000000000000081526004016107759061244f565b60405180910390fd5b80915050919050565b60008073ffffffffffffffffffffffffffffffffffffffff168273ffffffffffffffffffffffffffffffffffffffff1614156107f8576040517f08c379a00000000000000000000000000000000000000000000000000000000081526004016107ef9061242f565b60405180910390fd5b600360008373ffffffffffffffffffffffffffffffffffffffff1673ffffffffffffffffffffffffffffffffffffffff168152602001908152602001600020549050919050565b60606001805461084e90612774565b80601f016020809104026020016040519081016040528092919081815260200182805461087a90612774565b80156108c75780601f1061089c576101008083540402835291602001916108c7565b820191906000526020600020905b8154815290600101906020018083116108aa57829003601f168201915b5050505050905090565b6108e36108dc610da4565b83836111aa565b5050565b60085481565b6108fe6108f8610da4565b83610e65565b61093d576040517f08c379a00000000000000000000000000000000000000000000000000000000081526004016109349061252f565b60405180910390fd5b61094984848484611317565b50505050565b606061095a82610d38565b610999576040517f08c379a0000000000000000000000000000000000000000000000000000000008152600401610990906124af565b60405180910390fd5b60006006600084815260200190815260200160002080546109b990612774565b80601f01602080910402602001604051908101604052809291908181526020018280546109e590612774565b8015610a325780601f10610a0757610100808354040283529160200191610a32565b820191906000526020600020905b815481529060010190602001808311610a1557829003601f168201915b505050505090506000610a43611373565b9050600081511415610a59578192505050610a9c565b600082511115610a8e578082604051602001610a76929190612200565b60405160208183030381529060405292505050610a9c565b610a978461138a565b925050505b919050565b610aa9610415565b6008541015610aed576040517f08c379a0000000000000000000000000000000000000000000000000000000008152600401610ae4906123ef565b60405180910390fd5b6000610af96007610d2a565b9050610b053382611431565b610b2a816040518061016001604052806101218152602001612e47610121913961144f565b610b3460076114c3565b610b57604051806060016040528060258152602001612e226025913982336114d9565b7febb98688741ffa4c7589bf325de30cf7becb63de567842e1ccdb6cb949fdc82c3382604051610b8892919061228b565b60405180910390a150565b6000600560008473ffffffffffffffffffffffffffffffffffffffff1673ffffffffffffffffffffffffffffffffffffffff16815260200190815260200160002060008373ffffffffffffffffffffffffffffffffffffffff1673ffffffffffffffffffffffffffffffffffffffff16815260200190815260200160002060009054906101000a900460ff16905092915050565b610cbd81604051602401610c3b91906122cf565b6040516020818303038152906040527f41304fac000000000000000000000000000000000000000000000000000000007bffffffffffffffffffffffffffffffffffffffffffffffffffffffff19166020820180517bffffffffffffffffffffffffffffffffffffffffffffffffffffffff8381831617835250505050611578565b50565b60007f01ffc9a7000000000000000000000000000000000000000000000000000000007bffffffffffffffffffffffffffffffffffffffffffffffffffffffff1916827bffffffffffffffffffffffffffffffffffffffffffffffffffffffff1916149050919050565b600081600001549050919050565b60008073ffffffffffffffffffffffffffffffffffffffff166002600084815260200190815260200160002060009054906101000a900473ffffffffffffffffffffffffffffffffffffffff1673ffffffffffffffffffffffffffffffffffffffff1614159050919050565b600033905090565b816004600083815260200190815260200160002060006101000a81548173ffffffffffffffffffffffffffffffffffffffff021916908373ffffffffffffffffffffffffffffffffffffffff160217905550808273ffffffffffffffffffffffffffffffffffffffff16610e1f836106d5565b73ffffffffffffffffffffffffffffffffffffffff167f8c5be1e5ebec7d5bd14f71427d1e84f3dd0314c0f7b2291e5b200ac8c7c3b92560405160405180910390a45050565b6000610e7082610d38565b610eaf576040517f08c379a0000000000000000000000000000000000000000000000000000000008152600401610ea6906123cf565b60405180910390fd5b6000610eba836106d5565b90508073ffffffffffffffffffffffffffffffffffffffff168473ffffffffffffffffffffffffffffffffffffffff161480610efc5750610efb8185610b93565b5b80610f3a57508373ffffffffffffffffffffffffffffffffffffffff16610f22846104b8565b73ffffffffffffffffffffffffffffffffffffffff16145b91505092915050565b8273ffffffffffffffffffffffffffffffffffffffff16610f63826106d5565b73ffffffffffffffffffffffffffffffffffffffff1614610fb9576040517f08c379a0000000000000000000000000000000000000000000000000000000008152600401610fb09061234f565b60405180910390fd5b600073ffffffffffffffffffffffffffffffffffffffff168273ffffffffffffffffffffffffffffffffffffffff161415611029576040517f08c379a00000000000000000000000000000000000000000000000000000000081526004016110209061238f565b60405180910390fd5b6110348383836115a1565b61103f600082610dac565b6001600360008573ffffffffffffffffffffffffffffffffffffffff1673ffffffffffffffffffffffffffffffffffffffff168152602001908152602001600020600082825461108f919061268a565b925050819055506001600360008473ffffffffffffffffffffffffffffffffffffffff1673ffffffffffffffffffffffffffffffffffffffff16815260200190815260200160002060008282546110e69190612603565b92505081905550816002600083815260200190815260200160002060006101000a81548173ffffffffffffffffffffffffffffffffffffffff021916908373ffffffffffffffffffffffffffffffffffffffff160217905550808273ffffffffffffffffffffffffffffffffffffffff168473ffffffffffffffffffffffffffffffffffffffff167fddf252ad1be2c89b69c2b068fc378daa952ba7f163c4a11628f55a4df523b3ef60405160405180910390a46111a58383836115a6565b505050565b8173ffffffffffffffffffffffffffffffffffffffff168373ffffffffffffffffffffffffffffffffffffffff161415611219576040517f08c379a0000000000000000000000000000000000000000000000000000000008152600401611210906123af565b60405180910390fd5b80600560008573ffffffffffffffffffffffffffffffffffffffff1673ffffffffffffffffffffffffffffffffffffffff16815260200190815260200160002060008473ffffffffffffffffffffffffffffffffffffffff1673ffffffffffffffffffffffffffffffffffffffff16815260200190815260200160002060006101000a81548160ff0219169083151502179055508173ffffffffffffffffffffffffffffffffffffffff168373ffffffffffffffffffffffffffffffffffffffff167f17307eab39ab6107e8899845ad3d59bd9653f200f220920489ca2b5937696c318360405161130a91906122b4565b60405180910390a3505050565b611322848484610f43565b61132e848484846115ab565b61136d576040517f08c379a00000000000000000000000000000000000000000000000000000000081526004016113649061232f565b60405180910390fd5b50505050565b606060405180602001604052806000815250905090565b606061139582610d38565b6113d4576040517f08c379a00000000000000000000000000000000000000000000000000000000081526004016113cb906124ef565b60405180910390fd5b60006113de611373565b905060008151116113fe5760405180602001604052806000815250611429565b8061140884611742565b604051602001611419929190612200565b6040516020818303038152906040525b915050919050565b61144b8282604051806020016040528060008152506118ef565b5050565b61145882610d38565b611497576040517f08c379a000000000000000000000000000000000000000000000000000000000815260040161148e9061246f565b60405180910390fd5b806006600084815260200190815260200160002090805190602001906114be929190611b47565b505050565b6001816000016000828254019250508190555050565b6115738383836040516024016114f1939291906122f1565b6040516020818303038152906040527fe3849f79000000000000000000000000000000000000000000000000000000007bffffffffffffffffffffffffffffffffffffffffffffffffffffffff19166020820180517bffffffffffffffffffffffffffffffffffffffffffffffffffffffff8381831617835250505050611578565b505050565b60008151905060006a636f6e736f6c652e6c6f679050602083016000808483855afa5050505050565b505050565b505050565b60006115cc8473ffffffffffffffffffffffffffffffffffffffff1661194a565b15611735578373ffffffffffffffffffffffffffffffffffffffff1663150b7a026115f5610da4565b8786866040518563ffffffff1660e01b8152600401611617949392919061223f565b602060405180830381600087803b15801561163157600080fd5b505af192505050801561166257506040513d601f19601f8201168201806040525081019061165f9190611e8b565b60015b6116e5573d8060008114611692576040519150601f19603f3d011682016040523d82523d6000602084013e611697565b606091505b506000815114156116dd576040517f08c379a00000000000000000000000000000000000000000000000000000000081526004016116d49061232f565b60405180910390fd5b805181602001fd5b63150b7a0260e01b7bffffffffffffffffffffffffffffffffffffffffffffffffffffffff1916817bffffffffffffffffffffffffffffffffffffffffffffffffffffffff19161491505061173a565b600190505b949350505050565b6060600082141561178a576040518060400160405280600181526020017f300000000000000000000000000000000000000000000000000000000000000081525090506118ea565b600082905060005b600082146117bc5780806117a5906127d7565b915050600a826117b59190612659565b9150611792565b60008167ffffffffffffffff8111156117fe577f4e487b7100000000000000000000000000000000000000000000000000000000600052604160045260246000fd5b6040519080825280601f01601f1916602001820160405280156118305781602001600182028036833780820191505090505b5090505b600085146118e357600182611849919061268a565b9150600a856118589190612820565b60306118649190612603565b60f81b8183815181106118a0577f4e487b7100000000000000000000000000000000000000000000000000000000600052603260045260246000fd5b60200101907effffffffffffffffffffffffffffffffffffffffffffffffffffffffffffff1916908160001a905350600a856118dc9190612659565b9450611834565b8093505050505b919050565b6118f9838361196d565b61190660008484846115ab565b611945576040517f08c379a000000000000000000000000000000000000000000000000000000000815260040161193c9061232f565b60405180910390fd5b505050565b6000808273ffffffffffffffffffffffffffffffffffffffff163b119050919050565b600073ffffffffffffffffffffffffffffffffffffffff168273ffffffffffffffffffffffffffffffffffffffff1614156119dd576040517f08c379a00000000000000000000000000000000000000000000000000000000081526004016119d49061248f565b60405180910390fd5b6119e681610d38565b15611a26576040517f08c379a0000000000000000000000000000000000000000000000000000000008152600401611a1d9061236f565b60405180910390fd5b611a32600083836115a1565b6001600360008473ffffffffffffffffffffffffffffffffffffffff1673ffffffffffffffffffffffffffffffffffffffff1681526020019081526020016000206000828254611a829190612603565b92505081905550816002600083815260200190815260200160002060006101000a81548173ffffffffffffffffffffffffffffffffffffffff021916908373ffffffffffffffffffffffffffffffffffffffff160217905550808273ffffffffffffffffffffffffffffffffffffffff16600073ffffffffffffffffffffffffffffffffffffffff167fddf252ad1be2c89b69c2b068fc378daa952ba7f163c4a11628f55a4df523b3ef60405160405180910390a4611b43600083836115a6565b5050565b828054611b5390612774565b90600052602060002090601f016020900481019282611b755760008555611bbc565b82601f10611b8e57805160ff1916838001178555611bbc565b82800160010185558215611bbc579182015b82811115611bbb578251825591602001919060010190611ba0565b5b509050611bc99190611bcd565b5090565b5b80821115611be6576000816000905550600101611bce565b5090565b6000611bfd611bf88461258f565b61256a565b905082815260208101848484011115611c1557600080fd5b611c20848285612732565b509392505050565b600081359050611c3781612dc5565b92915050565b600081359050611c4c81612ddc565b92915050565b600081359050611c6181612df3565b92915050565b600081519050611c7681612df3565b92915050565b600082601f830112611c8d57600080fd5b8135611c9d848260208601611bea565b91505092915050565b600081359050611cb581612e0a565b92915050565b600060208284031215611ccd57600080fd5b6000611cdb84828501611c28565b91505092915050565b60008060408385031215611cf757600080fd5b6000611d0585828601611c28565b9250506020611d1685828601611c28565b9150509250929050565b600080600060608486031215611d3557600080fd5b6000611d4386828701611c28565b9350506020611d5486828701611c28565b9250506040611d6586828701611ca6565b9150509250925092565b60008060008060808587031215611d8557600080fd5b6000611d9387828801611c28565b9450506020611da487828801611c28565b9350506040611db587828801611ca6565b925050606085013567ffffffffffffffff811115611dd257600080fd5b611dde87828801611c7c565b91505092959194509250565b60008060408385031215611dfd57600080fd5b6000611e0b85828601611c28565b9250506020611e1c85828601611c3d565b9150509250929050565b60008060408385031215611e3957600080fd5b6000611e4785828601611c28565b9250506020611e5885828601611ca6565b9150509250929050565b600060208284031215611e7457600080fd5b6000611e8284828501611c52565b91505092915050565b600060208284031215611e9d57600080fd5b6000611eab84828501611c67565b91505092915050565b600060208284031215611ec657600080fd5b6000611ed484828501611ca6565b91505092915050565b611ee6816126be565b82525050565b611ef5816126d0565b82525050565b6000611f06826125c0565b611f1081856125d6565b9350611f20818560208601612741565b611f298161290d565b840191505092915050565b6000611f3f826125cb565b611f4981856125e7565b9350611f59818560208601612741565b611f628161290d565b840191505092915050565b6000611f78826125cb565b611f8281856125f8565b9350611f92818560208601612741565b80840191505092915050565b6000611fab6032836125e7565b9150611fb68261291e565b604082019050919050565b6000611fce6025836125e7565b9150611fd98261296d565b604082019050919050565b6000611ff1601c836125e7565b9150611ffc826129bc565b602082019050919050565b60006120146024836125e7565b915061201f826129e5565b604082019050919050565b60006120376019836125e7565b915061204282612a34565b602082019050919050565b600061205a602c836125e7565b915061206582612a5d565b604082019050919050565b600061207d6012836125e7565b915061208882612aac565b602082019050919050565b60006120a06038836125e7565b91506120ab82612ad5565b604082019050919050565b60006120c3602a836125e7565b91506120ce82612b24565b604082019050919050565b60006120e66029836125e7565b91506120f182612b73565b604082019050919050565b6000612109602e836125e7565b915061211482612bc2565b604082019050919050565b600061212c6020836125e7565b915061213782612c11565b602082019050919050565b600061214f6031836125e7565b915061215a82612c3a565b604082019050919050565b6000612172602c836125e7565b915061217d82612c89565b604082019050919050565b6000612195602f836125e7565b91506121a082612cd8565b604082019050919050565b60006121b86021836125e7565b91506121c382612d27565b604082019050919050565b60006121db6031836125e7565b91506121e682612d76565b604082019050919050565b6121fa81612728565b82525050565b600061220c8285611f6d565b91506122188284611f6d565b91508190509392505050565b60006020820190506122396000830184611edd565b92915050565b60006080820190506122546000830187611edd565b6122616020830186611edd565b61226e60408301856121f1565b81810360608301526122808184611efb565b905095945050505050565b60006040820190506122a06000830185611edd565b6122ad60208301846121f1565b9392505050565b60006020820190506122c96000830184611eec565b92915050565b600060208201905081810360008301526122e98184611f34565b905092915050565b6000606082019050818103600083015261230b8186611f34565b905061231a60208301856121f1565b6123276040830184611edd565b949350505050565b6000602082019050818103600083015261234881611f9e565b9050919050565b6000602082019050818103600083015261236881611fc1565b9050919050565b6000602082019050818103600083015261238881611fe4565b9050919050565b600060208201905081810360008301526123a881612007565b9050919050565b600060208201905081810360008301526123c88161202a565b9050919050565b600060208201905081810360008301526123e88161204d565b9050919050565b6000602082019050818103600083015261240881612070565b9050919050565b6000602082019050818103600083015261242881612093565b9050919050565b60006020820190508181036000830152612448816120b6565b9050919050565b60006020820190508181036000830152612468816120d9565b9050919050565b60006020820190508181036000830152612488816120fc565b9050919050565b600060208201905081810360008301526124a88161211f565b9050919050565b600060208201905081810360008301526124c881612142565b9050919050565b600060208201905081810360008301526124e881612165565b9050919050565b6000602082019050818103600083015261250881612188565b9050919050565b60006020820190508181036000830152612528816121ab565b9050919050565b60006020820190508181036000830152612548816121ce565b9050919050565b600060208201905061256460008301846121f1565b92915050565b6000612574612585565b905061258082826127a6565b919050565b6000604051905090565b600067ffffffffffffffff8211156125aa576125a96128de565b5b6125b38261290d565b9050602081019050919050565b600081519050919050565b600081519050919050565b600082825260208201905092915050565b600082825260208201905092915050565b600081905092915050565b600061260e82612728565b915061261983612728565b9250827fffffffffffffffffffffffffffffffffffffffffffffffffffffffffffffffff0382111561264e5761264d612851565b5b828201905092915050565b600061266482612728565b915061266f83612728565b92508261267f5761267e612880565b5b828204905092915050565b600061269582612728565b91506126a083612728565b9250828210156126b3576126b2612851565b5b828203905092915050565b60006126c982612708565b9050919050565b60008115159050919050565b60007fffffffff0000000000000000000000000000000000000000000000000000000082169050919050565b600073ffffffffffffffffffffffffffffffffffffffff82169050919050565b6000819050919050565b82818337600083830152505050565b60005b8381101561275f578082015181840152602081019050612744565b8381111561276e576000848401525b50505050565b6000600282049050600182168061278c57607f821691505b602082108114156127a05761279f6128af565b5b50919050565b6127af8261290d565b810181811067ffffffffffffffff821117156127ce576127cd6128de565b5b80604052505050565b60006127e282612728565b91507fffffffffffffffffffffffffffffffffffffffffffffffffffffffffffffffff82141561281557612814612851565b5b600182019050919050565b600061282b82612728565b915061283683612728565b92508261284657612845612880565b5b828206905092915050565b7f4e487b7100000000000000000000000000000000000000000000000000000000600052601160045260246000fd5b7f4e487b7100000000000000000000000000000000000000000000000000000000600052601260045260246000fd5b7f4e487b7100000000000000000000000000000000000000000000000000000000600052602260045260246000fd5b7f4e487b7100000000000000000000000000000000000000000000000000000000600052604160045260246000fd5b6000601f19601f8301169050919050565b7f4552433732313a207472616e7366657220746f206e6f6e20455243373231526560008201527f63656976657220696d706c656d656e7465720000000000000000000000000000602082015250565b7f4552433732313a207472616e736665722066726f6d20696e636f72726563742060008201527f6f776e6572000000000000000000000000000000000000000000000000000000602082015250565b7f4552433732313a20746f6b656e20616c7265616479206d696e74656400000000600082015250565b7f4552433732313a207472616e7366657220746f20746865207a65726f2061646460008201527f7265737300000000000000000000000000000000000000000000000000000000602082015250565b7f4552433732313a20617070726f766520746f2063616c6c657200000000000000600082015250565b7f4552433732313a206f70657261746f7220717565727920666f72206e6f6e657860008201527f697374656e7420746f6b656e0000000000000000000000000000000000000000602082015250565b7f5765277265206f7574206f66204e465473210000000000000000000000000000600082015250565b7f4552433732313a20617070726f76652063616c6c6572206973206e6f74206f7760008201527f6e6572206e6f7220617070726f76656420666f7220616c6c0000000000000000602082015250565b7f4552433732313a2062616c616e636520717565727920666f7220746865207a6560008201527f726f206164647265737300000000000000000000000000000000000000000000602082015250565b7f4552433732313a206f776e657220717565727920666f72206e6f6e657869737460008201527f656e7420746f6b656e0000000000000000000000000000000000000000000000602082015250565b7f45524337323155524953746f726167653a2055524920736574206f66206e6f6e60008201527f6578697374656e7420746f6b656e000000000000000000000000000000000000602082015250565b7f4552433732313a206d696e7420746f20746865207a65726f2061646472657373600082015250565b7f45524337323155524953746f726167653a2055524920717565727920666f722060008201527f6e6f6e6578697374656e7420746f6b656e000000000000000000000000000000602082015250565b7f4552433732313a20617070726f76656420717565727920666f72206e6f6e657860008201527f697374656e7420746f6b656e0000000000000000000000000000000000000000602082015250565b7f4552433732314d657461646174613a2055524920717565727920666f72206e6f60008201527f6e6578697374656e7420746f6b656e0000000000000000000000000000000000602082015250565b7f4552433732313a20617070726f76616c20746f2063757272656e74206f776e6560008201527f7200000000000000000000000000000000000000000000000000000000000000602082015250565b7f4552433732313a207472616e736665722063616c6c6572206973206e6f74206f60008201527f776e6572206e6f7220617070726f766564000000000000000000000000000000602082015250565b612dce816126be565b8114612dd957600080fd5b50565b612de5816126d0565b8114612df057600080fd5b50565b612dfc816126dc565b8114612e0757600080fd5b50565b612e1381612728565b8114612e1e57600080fd5b5056fe416e204e465420772f20494420257320686173206265656e206d696e74656420746f202573646174613a6170706c69636174696f6e2f6a736f6e3b6261736536342c65776f6749434167496d3568625755694f6941695647567a6443424f526c51694c416f6749434167496d526c63324e796158423061573975496a6f67496b4675494535475643426d636d39744948526f5a53426f6157646f62486b6759574e6a624746706257566b49484e78645746795a53426a623278735a574e30615739754969774b4943416749434a706257466e5a53493649434a6f64485277637a6f764c324e736233566b5a6d7868636d55746158426d6379356a623230766158426d637939526257465253475a6a557a52714f464a77614449335458424759544e43566a5a58576a677957554649655670726430705365574648565739475a6b644b49677039a26469706673582212201edf409d5fdc911677403a6632d447a2cbabf51b3968f48fe3716f134ceffa1f64736f6c63430008010033",
  "linkReferences": {},
  "deployedLinkReferences": {}
}